{
  "contractName": "ColdChainTrakingV4",
  "abi": [
    {
      "inputs": [],
      "stateMutability": "nonpayable",
      "type": "constructor"
    },
    {
      "anonymous": false,
      "inputs": [
        {
          "indexed": false,
          "internalType": "string",
          "name": "_certNum",
          "type": "string"
        }
      ],
      "name": "certificatesRegistEvent",
      "type": "event"
    },
    {
      "anonymous": false,
      "inputs": [
        {
          "indexed": false,
          "internalType": "uint32",
          "name": "round",
          "type": "uint32"
        },
        {
          "indexed": false,
          "internalType": "int24",
          "name": "humidity",
          "type": "int24"
        }
      ],
      "name": "deliverHumOutBoundEvent",
      "type": "event"
    },
    {
      "anonymous": false,
      "inputs": [
        {
          "indexed": false,
          "internalType": "uint32",
          "name": "round",
          "type": "uint32"
        },
        {
          "indexed": false,
          "internalType": "string",
          "name": "article",
          "type": "string"
        }
      ],
      "name": "deliverRegistEvent",
      "type": "event"
    },
    {
      "anonymous": false,
      "inputs": [
        {
          "indexed": false,
          "internalType": "uint32",
          "name": "round",
          "type": "uint32"
        },
        {
          "indexed": false,
          "internalType": "int24",
          "name": "temperature",
          "type": "int24"
        }
      ],
      "name": "deliverTempOutBoundEvent",
      "type": "event"
    },
    {
      "anonymous": false,
      "inputs": [
        {
          "indexed": false,
          "internalType": "uint32",
          "name": "round",
          "type": "uint32"
        },
        {
          "indexed": false,
          "internalType": "int24",
          "name": "vibration",
          "type": "int24"
        }
      ],
      "name": "deliverVibOutBoundEvent",
      "type": "event"
    },
    {
      "anonymous": false,
      "inputs": [
        {
          "indexed": false,
          "internalType": "bool",
          "name": "isTemperatureOutBound",
          "type": "bool"
        },
        {
          "indexed": false,
          "internalType": "bool",
          "name": "isHumidityOutBound",
          "type": "bool"
        },
        {
          "indexed": false,
          "internalType": "bool",
          "name": "isVibrationOutBound",
          "type": "bool"
        }
      ],
      "name": "traceEvent",
      "type": "event"
    },
    {
      "inputs": [],
      "name": "round",
      "outputs": [
        {
          "internalType": "uint32",
          "name": "",
          "type": "uint32"
        }
      ],
      "stateMutability": "view",
      "type": "function",
      "constant": true
    },
    {
      "inputs": [
        {
          "internalType": "string",
          "name": "_article",
          "type": "string"
        },
        {
          "internalType": "string",
          "name": "_articleDetail",
          "type": "string"
        },
        {
          "internalType": "int24",
          "name": "_temperatureOutBound1",
          "type": "int24"
        },
        {
          "internalType": "int24",
          "name": "_temperatureOutBound2",
          "type": "int24"
        },
        {
          "internalType": "int24",
          "name": "_humidityOutBound1",
          "type": "int24"
        },
        {
          "internalType": "int24",
          "name": "_humidityOutBound2",
          "type": "int24"
        },
        {
          "internalType": "int24",
          "name": "_vibrationOutBound1",
          "type": "int24"
        },
        {
          "internalType": "int24",
          "name": "_vibrationOutBound2",
          "type": "int24"
        }
      ],
      "name": "addDelivery",
      "outputs": [
        {
          "internalType": "uint32",
          "name": "",
          "type": "uint32"
        }
      ],
      "stateMutability": "nonpayable",
      "type": "function"
    },
    {
      "inputs": [
        {
          "internalType": "uint32",
          "name": "_round",
          "type": "uint32"
        },
        {
          "internalType": "uint256",
          "name": "_tempTimeOut",
          "type": "uint256"
        },
        {
          "internalType": "uint256",
          "name": "_humiTimeOut",
          "type": "uint256"
        },
        {
          "internalType": "uint256",
          "name": "_vibrTimeOut",
          "type": "uint256"
        }
      ],
      "name": "setDeliveryTimeOut",
      "outputs": [],
      "stateMutability": "nonpayable",
      "type": "function"
    },
    {
      "inputs": [
        {
          "internalType": "uint32",
          "name": "_round",
          "type": "uint32"
        },
        {
          "internalType": "string",
          "name": "_article",
          "type": "string"
        },
        {
          "internalType": "string",
          "name": "_articleDetail",
          "type": "string"
        },
        {
          "internalType": "int24",
          "name": "_temperatureOutBound1",
          "type": "int24"
        },
        {
          "internalType": "int24",
          "name": "_temperatureOutBound2",
          "type": "int24"
        },
        {
          "internalType": "int24",
          "name": "_humidityOutBound1",
          "type": "int24"
        },
        {
          "internalType": "int24",
          "name": "_humidityOutBound2",
          "type": "int24"
        },
        {
          "internalType": "int24",
          "name": "_vibrationOutBound1",
          "type": "int24"
        },
        {
          "internalType": "int24",
          "name": "_vibrationOutBound2",
          "type": "int24"
        }
      ],
      "name": "updateDelivery",
      "outputs": [],
      "stateMutability": "nonpayable",
      "type": "function"
    },
    {
      "inputs": [
        {
          "internalType": "uint32",
          "name": "_round",
          "type": "uint32"
        },
        {
          "internalType": "uint256",
          "name": "startDt",
          "type": "uint256"
        }
      ],
      "name": "startTraking",
      "outputs": [],
      "stateMutability": "nonpayable",
      "type": "function"
    },
    {
      "inputs": [
        {
          "internalType": "uint32",
          "name": "_round",
          "type": "uint32"
        },
        {
          "internalType": "uint256",
          "name": "endDt",
          "type": "uint256"
        }
      ],
      "name": "endTraking",
      "outputs": [],
      "stateMutability": "nonpayable",
      "type": "function"
    },
    {
      "inputs": [
        {
          "internalType": "uint32",
          "name": "_round",
          "type": "uint32"
        },
        {
          "internalType": "int64",
          "name": "_latitude",
          "type": "int64"
        },
        {
          "internalType": "int64",
          "name": "_longitude",
          "type": "int64"
        },
        {
          "internalType": "int24",
          "name": "_temperature",
          "type": "int24"
        },
        {
          "internalType": "int24",
          "name": "_humidity",
          "type": "int24"
        },
        {
          "internalType": "int24",
          "name": "_vibration",
          "type": "int24"
        },
        {
          "internalType": "uint256",
          "name": "deviceDt",
          "type": "uint256"
        },
        {
          "internalType": "int24",
          "name": "aiStatus",
          "type": "int24"
        }
      ],
      "name": "addTraking",
      "outputs": [
        {
          "components": [
            {
              "internalType": "int64",
              "name": "latitude",
              "type": "int64"
            },
            {
              "internalType": "int64",
              "name": "longitude",
              "type": "int64"
            },
            {
              "internalType": "int24",
              "name": "temperature",
              "type": "int24"
            },
            {
              "internalType": "int24",
              "name": "humidity",
              "type": "int24"
            },
            {
              "internalType": "int24",
              "name": "vibration",
              "type": "int24"
            },
            {
              "internalType": "bool",
              "name": "isTemperatureOutBound",
              "type": "bool"
            },
            {
              "internalType": "bool",
              "name": "isHumidityOutBound",
              "type": "bool"
            },
            {
              "internalType": "bool",
              "name": "isVibrationOutBound",
              "type": "bool"
            },
            {
              "internalType": "uint256",
              "name": "deviceDt",
              "type": "uint256"
            },
            {
              "internalType": "uint256",
              "name": "timestamp",
              "type": "uint256"
            },
            {
              "internalType": "int24",
              "name": "aiStatus",
              "type": "int24"
            }
          ],
          "internalType": "struct ColdChainTrakingV4.Trace",
          "name": "",
          "type": "tuple"
        }
      ],
      "stateMutability": "nonpayable",
      "type": "function"
    },
    {
      "inputs": [
        {
          "internalType": "uint32",
          "name": "_round",
          "type": "uint32"
        }
      ],
      "name": "getDeliveryInfo",
      "outputs": [
        {
          "internalType": "uint8",
          "name": "",
          "type": "uint8"
        },
        {
          "internalType": "string",
          "name": "",
          "type": "string"
        },
        {
          "internalType": "string",
          "name": "",
          "type": "string"
        },
        {
          "internalType": "uint256",
          "name": "",
          "type": "uint256"
        },
        {
          "internalType": "uint256",
          "name": "",
          "type": "uint256"
        },
        {
          "internalType": "uint256",
          "name": "",
          "type": "uint256"
        }
      ],
      "stateMutability": "view",
      "type": "function",
      "constant": true
    },
    {
      "inputs": [
        {
          "internalType": "uint32",
          "name": "_round",
          "type": "uint32"
        }
      ],
      "name": "getDeliveryCheckInfo",
      "outputs": [
        {
          "internalType": "bool",
          "name": "",
          "type": "bool"
        },
        {
          "internalType": "bool",
          "name": "",
          "type": "bool"
        },
        {
          "internalType": "bool",
          "name": "",
          "type": "bool"
        },
        {
          "internalType": "bool",
          "name": "",
          "type": "bool"
        },
        {
          "internalType": "bool",
          "name": "",
          "type": "bool"
        },
        {
          "internalType": "bool",
          "name": "",
          "type": "bool"
        },
        {
          "internalType": "int24",
          "name": "",
          "type": "int24"
        },
        {
          "internalType": "int24",
          "name": "",
          "type": "int24"
        },
        {
          "internalType": "int24",
          "name": "",
          "type": "int24"
        },
        {
          "internalType": "int24",
          "name": "",
          "type": "int24"
        },
        {
          "internalType": "int24",
          "name": "",
          "type": "int24"
        },
        {
          "internalType": "int24",
          "name": "",
          "type": "int24"
        }
      ],
      "stateMutability": "view",
      "type": "function",
      "constant": true
    },
    {
      "inputs": [
        {
          "internalType": "uint32",
          "name": "_round",
          "type": "uint32"
        }
      ],
      "name": "getDeliveryTimeOut",
      "outputs": [
        {
          "internalType": "uint256",
          "name": "",
          "type": "uint256"
        },
        {
          "internalType": "uint256",
          "name": "",
          "type": "uint256"
        },
        {
          "internalType": "uint256",
          "name": "",
          "type": "uint256"
        }
      ],
      "stateMutability": "view",
      "type": "function",
      "constant": true
    },
    {
      "inputs": [
        {
          "internalType": "uint32",
          "name": "_round",
          "type": "uint32"
        }
      ],
      "name": "getStat",
      "outputs": [
        {
          "internalType": "uint8",
          "name": "",
          "type": "uint8"
        }
      ],
      "stateMutability": "view",
      "type": "function",
      "constant": true
    },
    {
      "inputs": [
        {
          "internalType": "uint32",
          "name": "_round",
          "type": "uint32"
        }
      ],
      "name": "getRoundTraking",
      "outputs": [
        {
          "components": [
            {
              "internalType": "int64",
              "name": "latitude",
              "type": "int64"
            },
            {
              "internalType": "int64",
              "name": "longitude",
              "type": "int64"
            },
            {
              "internalType": "int24",
              "name": "temperature",
              "type": "int24"
            },
            {
              "internalType": "int24",
              "name": "humidity",
              "type": "int24"
            },
            {
              "internalType": "int24",
              "name": "vibration",
              "type": "int24"
            },
            {
              "internalType": "bool",
              "name": "isTemperatureOutBound",
              "type": "bool"
            },
            {
              "internalType": "bool",
              "name": "isHumidityOutBound",
              "type": "bool"
            },
            {
              "internalType": "bool",
              "name": "isVibrationOutBound",
              "type": "bool"
            },
            {
              "internalType": "uint256",
              "name": "deviceDt",
              "type": "uint256"
            },
            {
              "internalType": "uint256",
              "name": "timestamp",
              "type": "uint256"
            },
            {
              "internalType": "int24",
              "name": "aiStatus",
              "type": "int24"
            }
          ],
          "internalType": "struct ColdChainTrakingV4.Trace[]",
          "name": "",
          "type": "tuple[]"
        }
      ],
      "stateMutability": "view",
      "type": "function",
      "constant": true
    },
    {
      "inputs": [
        {
          "internalType": "uint32",
          "name": "_round",
          "type": "uint32"
        }
      ],
      "name": "getRoundLastTraking",
      "outputs": [
        {
          "components": [
            {
              "internalType": "int64",
              "name": "latitude",
              "type": "int64"
            },
            {
              "internalType": "int64",
              "name": "longitude",
              "type": "int64"
            },
            {
              "internalType": "int24",
              "name": "temperature",
              "type": "int24"
            },
            {
              "internalType": "int24",
              "name": "humidity",
              "type": "int24"
            },
            {
              "internalType": "int24",
              "name": "vibration",
              "type": "int24"
            },
            {
              "internalType": "bool",
              "name": "isTemperatureOutBound",
              "type": "bool"
            },
            {
              "internalType": "bool",
              "name": "isHumidityOutBound",
              "type": "bool"
            },
            {
              "internalType": "bool",
              "name": "isVibrationOutBound",
              "type": "bool"
            },
            {
              "internalType": "uint256",
              "name": "deviceDt",
              "type": "uint256"
            },
            {
              "internalType": "uint256",
              "name": "timestamp",
              "type": "uint256"
            },
            {
              "internalType": "int24",
              "name": "aiStatus",
              "type": "int24"
            }
          ],
          "internalType": "struct ColdChainTrakingV4.Trace",
          "name": "",
          "type": "tuple"
        }
      ],
      "stateMutability": "view",
      "type": "function",
      "constant": true
    },
    {
      "inputs": [
        {
          "internalType": "uint32",
          "name": "_round",
          "type": "uint32"
        }
      ],
      "name": "getRoundCertificate",
      "outputs": [
        {
          "internalType": "string[]",
          "name": "",
          "type": "string[]"
        }
      ],
      "stateMutability": "view",
      "type": "function",
      "constant": true
    },
    {
      "inputs": [
        {
          "internalType": "string",
          "name": "_certNum",
          "type": "string"
        },
        {
          "internalType": "string",
          "name": "_name",
          "type": "string"
        },
        {
          "internalType": "uint32",
          "name": "_round",
          "type": "uint32"
        }
      ],
      "name": "generateCertificate",
      "outputs": [],
      "stateMutability": "nonpayable",
      "type": "function"
    },
    {
      "inputs": [
        {
          "internalType": "string",
          "name": "_certNum",
          "type": "string"
        }
      ],
      "name": "getCertificate",
      "outputs": [
        {
          "components": [
            {
              "internalType": "string",
              "name": "name",
              "type": "string"
            },
            {
              "internalType": "uint32",
              "name": "deliverId",
              "type": "uint32"
            },
            {
              "internalType": "uint256",
              "name": "timestamp",
              "type": "uint256"
            }
          ],
          "internalType": "struct ColdChainTrakingV4.Certificate",
          "name": "",
          "type": "tuple"
        }
      ],
      "stateMutability": "view",
      "type": "function",
      "constant": true
    }
  ],
  "bytecode": "0x60806040526000600360006101000a81548163ffffffff021916908363ffffffff16021790555034801561003257600080fd5b50336000806101000a81548173ffffffffffffffffffffffffffffffffffffffff021916908373ffffffffffffffffffffffffffffffffffffffff16021790555061349d806100826000396000f3fe608060405234801561001057600080fd5b50600436106101005760003560e01c80638f5621ff11610097578063ea0bb51111610066578063ea0bb511146102df578063ed0f2e7514610311578063f0acf5b014610341578063f6bb16e91461037157610100565b80638f5621ff14610233578063ba3d427c1461024f578063d58f87941461027f578063dfc6a6e9146102af57610100565b806321eb5a07116100d357806321eb5a0714610196578063450acd59146101cb578063507b61ae146101e757806378e6d2f21461021757610100565b80630826e25f1461010557806311aed9a714610121578063146ca5311461015c57806314c849d11461017a575b600080fd5b61011f600480360381019061011a91906122ac565b6103a1565b005b61013b60048036038101906101369190612313565b6104ac565b6040516101539c9b9a99989796959493929190612377565b60405180910390f35b610164610610565b6040516101719190612440565b60405180910390f35b610194600480360381019061018f91906125a1565b610626565b005b6101b060048036038101906101ab9190612313565b610819565b6040516101c2969594939291906126d6565b60405180910390f35b6101e560048036038101906101e09190612745565b610a5b565b005b61020160048036038101906101fc9190612313565b610b87565b60405161020e9190612785565b60405180910390f35b610231600480360381019061022c9190612745565b610bee565b005b61024d600480360381019061024891906127cc565b610d1a565b005b61026960048036038101906102649190612313565b6110a3565b6040516102769190612aa8565b60405180910390f35b61029960048036038101906102949190612af6565b611267565b6040516102a69190612c8d565b60405180910390f35b6102c960048036038101906102c49190612313565b61190a565b6040516102d69190612db5565b60405180910390f35b6102f960048036038101906102f49190612313565b611a05565b60405161030893929190612dd7565b60405180910390f35b61032b60048036038101906103269190612e0e565b611aae565b6040516103389190612eb6565b60405180910390f35b61035b60048036038101906103569190612313565b611ba8565b6040516103689190612c8d565b60405180910390f35b61038b60048036038101906103869190612ed8565b611d77565b6040516103989190612440565b60405180910390f35b3373ffffffffffffffffffffffffffffffffffffffff1660008054906101000a900473ffffffffffffffffffffffffffffffffffffffff1673ffffffffffffffffffffffffffffffffffffffff16146103f957600080fd5b6000600160008663ffffffff1663ffffffff168152602001908152602001600020600c01540361042857600080fd5b6000600160008663ffffffff1663ffffffff16815260200190815260200160002060000160009054906101000a900460ff1660ff161461046757600080fd5b6000600160008663ffffffff1663ffffffff16815260200190815260200160002090508381600401819055508281600501819055508181600601819055505050505050565b6000806000806000806000806000806000806000600160008f63ffffffff1663ffffffff168152602001908152602001600020600c0154036104ed57600080fd5b6000600160008f63ffffffff1663ffffffff16815260200190815260200160002090508060030160009054906101000a900460ff168160030160019054906101000a900460ff168260030160029054906101000a900460ff168360030160039054906101000a900460ff168460030160049054906101000a900460ff168560030160059054906101000a900460ff168660030160069054906101000a900460020b8760030160099054906101000a900460020b88600301600c9054906101000a900460020b89600301600f9054906101000a900460020b8a60030160129054906101000a900460020b8b60030160159054906101000a900460020b9c509c509c509c509c509c509c509c509c509c509c509c505091939597999b5091939597999b565b600360009054906101000a900463ffffffff1681565b3373ffffffffffffffffffffffffffffffffffffffff1660008054906101000a900473ffffffffffffffffffffffffffffffffffffffff1673ffffffffffffffffffffffffffffffffffffffff161461067e57600080fd5b6000600160008363ffffffff1663ffffffff16815260200190815260200160002090508060030160039054906101000a900460ff16156106bd57600080fd5b8060030160049054906101000a900460ff16156106d957600080fd5b8060030160059054906101000a900460ff16156106f557600080fd5b60028160000160009054906101000a900460ff1660ff161461071657600080fd5b60006002856040516107289190613002565b9081526020016040518091039020600201541461074457600080fd5b60006002856040516107569190613002565b90815260200160405180910390209050838160000190816107779190613225565b50828160010160006101000a81548163ffffffff021916908363ffffffff1602179055504281600201819055507f51b55d664853a80409cae4c8f88e1f45ef58ebda27054e954cf9969dca4c6f44856040516107d391906132f7565b60405180910390a181600e01859080600181540180825580915050600190039060005260206000200160009091909190915090816108119190613225565b505050505050565b6000606080600080600080600160008963ffffffff1663ffffffff168152602001908152602001600020600c01540361085157600080fd5b600160008863ffffffff1663ffffffff16815260200190815260200160002060000160009054906101000a900460ff16600160008963ffffffff1663ffffffff168152602001908152602001600020600101600160008a63ffffffff1663ffffffff168152602001908152602001600020600201600160008b63ffffffff1663ffffffff168152602001908152602001600020600a0154600160008c63ffffffff1663ffffffff168152602001908152602001600020600b0154600160008d63ffffffff1663ffffffff168152602001908152602001600020600c015484805461093a90613048565b80601f016020809104026020016040519081016040528092919081815260200182805461096690613048565b80156109b35780601f10610988576101008083540402835291602001916109b3565b820191906000526020600020905b81548152906001019060200180831161099657829003601f168201915b505050505094508380546109c690613048565b80601f01602080910402602001604051908101604052809291908181526020018280546109f290613048565b8015610a3f5780601f10610a1457610100808354040283529160200191610a3f565b820191906000526020600020905b815481529060010190602001808311610a2257829003601f168201915b5050505050935095509550955095509550955091939550919395565b3373ffffffffffffffffffffffffffffffffffffffff1660008054906101000a900473ffffffffffffffffffffffffffffffffffffffff1673ffffffffffffffffffffffffffffffffffffffff1614610ab357600080fd5b6000600160008463ffffffff1663ffffffff168152602001908152602001600020600c015403610ae257600080fd5b6000600160008463ffffffff1663ffffffff16815260200190815260200160002060000160009054906101000a900460ff1660ff1614610b2157600080fd5b60018060008463ffffffff1663ffffffff16815260200190815260200160002060000160006101000a81548160ff021916908360ff16021790555080600160008463ffffffff1663ffffffff168152602001908152602001600020600a01819055505050565b600080600160008463ffffffff1663ffffffff168152602001908152602001600020600c015403610bb757600080fd5b600160008363ffffffff1663ffffffff16815260200190815260200160002060000160009054906101000a900460ff169050919050565b3373ffffffffffffffffffffffffffffffffffffffff1660008054906101000a900473ffffffffffffffffffffffffffffffffffffffff1673ffffffffffffffffffffffffffffffffffffffff1614610c4657600080fd5b6000600160008463ffffffff1663ffffffff168152602001908152602001600020600c015403610c7557600080fd5b60018060008463ffffffff1663ffffffff16815260200190815260200160002060000160009054906101000a900460ff1660ff1614610cb357600080fd5b6002600160008463ffffffff1663ffffffff16815260200190815260200160002060000160006101000a81548160ff021916908360ff16021790555080600160008463ffffffff1663ffffffff168152602001908152602001600020600b01819055505050565b3373ffffffffffffffffffffffffffffffffffffffff1660008054906101000a900473ffffffffffffffffffffffffffffffffffffffff1673ffffffffffffffffffffffffffffffffffffffff1614610d7257600080fd5b6000600160008b63ffffffff1663ffffffff168152602001908152602001600020600c015403610da157600080fd5b6000600160008b63ffffffff1663ffffffff16815260200190815260200160002060000160009054906101000a900460ff1660ff1614610de057600080fd5b6000600160008b63ffffffff1663ffffffff168152602001908152602001600020905088816001019081610e149190613225565b5087816002019081610e269190613225565b5060008160030160036101000a81548160ff02191690831515021790555060008160030160046101000a81548160ff02191690831515021790555060008160030160056101000a81548160ff021916908315150217905550868160030160066101000a81548162ffffff021916908360020b62ffffff160217905550858160030160096101000a81548162ffffff021916908360020b62ffffff1602179055508481600301600c6101000a81548162ffffff021916908360020b62ffffff1602179055508381600301600f6101000a81548162ffffff021916908360020b62ffffff160217905550828160030160126101000a81548162ffffff021916908360020b62ffffff160217905550818160030160156101000a81548162ffffff021916908360020b62ffffff1602179055507ffffffffffffffffffffffffffffffffffffffffffffffffffffffffffffe7d488760020b1315610fa35760018160030160006101000a81548160ff021916908315150217905550610fc1565b60008160030160006101000a81548160ff0219169083151502179055505b7ffffffffffffffffffffffffffffffffffffffffffffffffffffffffffffe7d488560020b131561100e5760018160030160016101000a81548160ff02191690831515021790555061102c565b60008160030160016101000a81548160ff0219169083151502179055505b7ffffffffffffffffffffffffffffffffffffffffffffffffffffffffffffe7d488360020b13156110795760018160030160026101000a81548160ff021916908315150217905550611097565b60008160030160026101000a81548160ff0219169083151502179055505b50505050505050505050565b60606000600160008463ffffffff1663ffffffff168152602001908152602001600020600c0154036110d457600080fd5b600160008363ffffffff1663ffffffff168152602001908152602001600020600d01805480602002602001604051908101604052809291908181526020016000905b8282101561125c5783829060005260206000209060040201604051806101600160405290816000820160009054906101000a900460070b60070b60070b81526020016000820160089054906101000a900460070b60070b60070b81526020016000820160109054906101000a900460020b60020b60020b81526020016000820160139054906101000a900460020b60020b60020b81526020016000820160169054906101000a900460020b60020b60020b81526020016000820160199054906101000a900460ff1615151515815260200160008201601a9054906101000a900460ff1615151515815260200160008201601b9054906101000a900460ff1615151515815260200160018201548152602001600282015481526020016003820160009054906101000a900460020b60020b60020b8152505081526020019060010190611116565b505050509050919050565b61126f61218d565b3373ffffffffffffffffffffffffffffffffffffffff1660008054906101000a900473ffffffffffffffffffffffffffffffffffffffff1673ffffffffffffffffffffffffffffffffffffffff16146112c757600080fd5b6000600160008b63ffffffff1663ffffffff168152602001908152602001600020600c0154036112f657600080fd5b6000600160008b63ffffffff1663ffffffff168152602001908152602001600020905060008160000160009054906101000a900460ff1660ff16036113405761133f8a42610a5b565b5b60018160000160009054906101000a900460ff1660ff161461136157600080fd5b60008060008360030160009054906101000a900460ff1680156113bb57508960020b8460030160069054906101000a900460020b60020b13806113ba57508960020b8460030160099054906101000a900460020b60020b125b5b15611471576000846004015414806113f65750600084600701541180156113f5575083600401548460070154426113f29190613348565b10155b5b15611456576001925060018460030160036101000a81548160ff0219169083151502179055507fb383d877fcf9f2cc7b23be7c0bd6220c69b42115b4106ece45cfd337b44acc088d8b60405161144d92919061337c565b60405180910390a15b600084600701540361146c574284600701819055505b61147c565b600084600701819055505b8360030160019054906101000a900460ff1680156114d157508860020b84600301600c9054906101000a900460020b60020b13806114d057508860020b84600301600f9054906101000a900460020b60020b125b5b156115875760008460050154148061150c57506000846008015411801561150b575083600501548460080154426115089190613348565b10155b5b1561156c576001915060018460030160046101000a81548160ff0219169083151502179055507f83233ce34fff0482e06e3a109dac2b6eed67fa8459bc0b7655d69ad6546220558d8a60405161156392919061337c565b60405180910390a15b6000846008015403611582574284600801819055505b611592565b600084600801819055505b8360030160029054906101000a900460ff1680156115e757508760020b8460030160129054906101000a900460020b60020b13806115e657508760020b8460030160159054906101000a900460020b60020b125b5b1561169d576000846006015414806116225750600084600901541180156116215750836006015484600901544261161e9190613348565b10155b5b15611682576001905060018460030160056101000a81548160ff0219169083151502179055507f0292a0dbd4cc35f14be53601ea80283d9c1ec74f4f6fa7977ee0edea5a191cda8d8960405161167992919061337c565b60405180910390a15b6000846009015403611698574284600901819055505b6116a8565b600084600901819055505b60006040518061016001604052808e60070b81526020018d60070b81526020018c60020b81526020018b60020b81526020018a60020b81526020018515158152602001841515815260200183151581526020018981526020014281526020018860020b815250905084600d0181908060018154018082558091505060019003906000526020600020906004020160009091909190915060008201518160000160006101000a81548167ffffffffffffffff021916908360070b67ffffffffffffffff16021790555060208201518160000160086101000a81548167ffffffffffffffff021916908360070b67ffffffffffffffff16021790555060408201518160000160106101000a81548162ffffff021916908360020b62ffffff16021790555060608201518160000160136101000a81548162ffffff021916908360020b62ffffff16021790555060808201518160000160166101000a81548162ffffff021916908360020b62ffffff16021790555060a08201518160000160196101000a81548160ff02191690831515021790555060c082015181600001601a6101000a81548160ff02191690831515021790555060e082015181600001601b6101000a81548160ff021916908315150217905550610100820151816001015561012082015181600201556101408201518160030160006101000a81548162ffffff021916908360020b62ffffff16021790555050507f675b832f22064d36fcb3f8aba89ffb7fdd583b444a0fec1108c743631c24ec778484846040516118ee939291906133a5565b60405180910390a1809550505050505098975050505050505050565b6060600160008363ffffffff1663ffffffff168152602001908152602001600020600e01805480602002602001604051908101604052809291908181526020016000905b828210156119fa57838290600052602060002001805461196d90613048565b80601f016020809104026020016040519081016040528092919081815260200182805461199990613048565b80156119e65780601f106119bb576101008083540402835291602001916119e6565b820191906000526020600020905b8154815290600101906020018083116119c957829003601f168201915b50505050508152602001906001019061194e565b505050509050919050565b600080600080600160008663ffffffff1663ffffffff168152602001908152602001600020600c015403611a3857600080fd5b600160008563ffffffff1663ffffffff16815260200190815260200160002060040154600160008663ffffffff1663ffffffff16815260200190815260200160002060050154600160008763ffffffff1663ffffffff168152602001908152602001600020600601549250925092509193909250565b611ab66121ff565b600282604051611ac69190613002565b9081526020016040518091039020604051806060016040529081600082018054611aef90613048565b80601f0160208091040260200160405190810160405280929190818152602001828054611b1b90613048565b8015611b685780601f10611b3d57610100808354040283529160200191611b68565b820191906000526020600020905b815481529060010190602001808311611b4b57829003601f168201915b505050505081526020016001820160009054906101000a900463ffffffff1663ffffffff1663ffffffff1681526020016002820154815250509050919050565b611bb061218d565b6000600160008463ffffffff1663ffffffff168152602001908152602001600020600c015403611bdf57600080fd5b600160008363ffffffff1663ffffffff168152602001908152602001600020600d0160018060008563ffffffff1663ffffffff168152602001908152602001600020600d0180549050611c329190613348565b81548110611c4357611c426133dc565b5b9060005260206000209060040201604051806101600160405290816000820160009054906101000a900460070b60070b60070b81526020016000820160089054906101000a900460070b60070b60070b81526020016000820160109054906101000a900460020b60020b60020b81526020016000820160139054906101000a900460020b60020b60020b81526020016000820160169054906101000a900460020b60020b60020b81526020016000820160199054906101000a900460ff1615151515815260200160008201601a9054906101000a900460ff1615151515815260200160008201601b9054906101000a900460ff1615151515815260200160018201548152602001600282015481526020016003820160009054906101000a900460020b60020b60020b815250509050919050565b60003373ffffffffffffffffffffffffffffffffffffffff1660008054906101000a900473ffffffffffffffffffffffffffffffffffffffff1673ffffffffffffffffffffffffffffffffffffffff1614611dd157600080fd5b6003600081819054906101000a900463ffffffff1680929190611df39061340b565b91906101000a81548163ffffffff021916908363ffffffff16021790555050600060016000600360009054906101000a900463ffffffff1663ffffffff1663ffffffff168152602001908152602001600020905060008160000160006101000a81548160ff021916908360ff16021790555089816001019081611e769190613225565b5088816002019081611e889190613225565b5060008160030160036101000a81548160ff02191690831515021790555060008160030160046101000a81548160ff02191690831515021790555060008160030160056101000a81548160ff021916908315150217905550878160030160066101000a81548162ffffff021916908360020b62ffffff160217905550868160030160096101000a81548162ffffff021916908360020b62ffffff1602179055508581600301600c6101000a81548162ffffff021916908360020b62ffffff1602179055508481600301600f6101000a81548162ffffff021916908360020b62ffffff160217905550838160030160126101000a81548162ffffff021916908360020b62ffffff160217905550828160030160156101000a81548162ffffff021916908360020b62ffffff1602179055506000816007018190555060008160080181905550600081600901819055507ffffffffffffffffffffffffffffffffffffffffffffffffffffffffffffe7d488860020b13156120235760018160030160006101000a81548160ff021916908315150217905550612041565b60008160030160006101000a81548160ff0219169083151502179055505b7ffffffffffffffffffffffffffffffffffffffffffffffffffffffffffffe7d488660020b131561208e5760018160030160016101000a81548160ff0219169083151502179055506120ac565b60008160030160016101000a81548160ff0219169083151502179055505b7ffffffffffffffffffffffffffffffffffffffffffffffffffffffffffffe7d488460020b13156120f95760018160030160026101000a81548160ff021916908315150217905550612117565b60008160030160026101000a81548160ff0219169083151502179055505b4281600c01819055507f731d61756f73757d86a124cb52fa98a57499a404fdcc5306b50547eb91c3bf04600360009054906101000a900463ffffffff168b604051612163929190613437565b60405180910390a1600360009054906101000a900463ffffffff1691505098975050505050505050565b604051806101600160405280600060070b8152602001600060070b8152602001600060020b8152602001600060020b8152602001600060020b81526020016000151581526020016000151581526020016000151581526020016000815260200160008152602001600060020b81525090565b604051806060016040528060608152602001600063ffffffff168152602001600081525090565b6000604051905090565b600080fd5b600080fd5b600063ffffffff82169050919050565b6122538161223a565b811461225e57600080fd5b50565b6000813590506122708161224a565b92915050565b6000819050919050565b61228981612276565b811461229457600080fd5b50565b6000813590506122a681612280565b92915050565b600080600080608085870312156122c6576122c5612230565b5b60006122d487828801612261565b94505060206122e587828801612297565b93505060406122f687828801612297565b925050606061230787828801612297565b91505092959194509250565b60006020828403121561232957612328612230565b5b600061233784828501612261565b91505092915050565b60008115159050919050565b61235581612340565b82525050565b60008160020b9050919050565b6123718161235b565b82525050565b60006101808201905061238d600083018f61234c565b61239a602083018e61234c565b6123a7604083018d61234c565b6123b4606083018c61234c565b6123c1608083018b61234c565b6123ce60a083018a61234c565b6123db60c0830189612368565b6123e860e0830188612368565b6123f6610100830187612368565b612404610120830186612368565b612412610140830185612368565b612420610160830184612368565b9d9c50505050505050505050505050565b61243a8161223a565b82525050565b60006020820190506124556000830184612431565b92915050565b600080fd5b600080fd5b6000601f19601f8301169050919050565b7f4e487b7100000000000000000000000000000000000000000000000000000000600052604160045260246000fd5b6124ae82612465565b810181811067ffffffffffffffff821117156124cd576124cc612476565b5b80604052505050565b60006124e0612226565b90506124ec82826124a5565b919050565b600067ffffffffffffffff82111561250c5761250b612476565b5b61251582612465565b9050602081019050919050565b82818337600083830152505050565b600061254461253f846124f1565b6124d6565b9050828152602081018484840111156125605761255f612460565b5b61256b848285612522565b509392505050565b600082601f8301126125885761258761245b565b5b8135612598848260208601612531565b91505092915050565b6000806000606084860312156125ba576125b9612230565b5b600084013567ffffffffffffffff8111156125d8576125d7612235565b5b6125e486828701612573565b935050602084013567ffffffffffffffff81111561260557612604612235565b5b61261186828701612573565b925050604061262286828701612261565b9150509250925092565b600060ff82169050919050565b6126428161262c565b82525050565b600081519050919050565b600082825260208201905092915050565b60005b83811015612682578082015181840152602081019050612667565b60008484015250505050565b600061269982612648565b6126a38185612653565b93506126b3818560208601612664565b6126bc81612465565b840191505092915050565b6126d081612276565b82525050565b600060c0820190506126eb6000830189612639565b81810360208301526126fd818861268e565b90508181036040830152612711818761268e565b905061272060608301866126c7565b61272d60808301856126c7565b61273a60a08301846126c7565b979650505050505050565b6000806040838503121561275c5761275b612230565b5b600061276a85828601612261565b925050602061277b85828601612297565b9150509250929050565b600060208201905061279a6000830184612639565b92915050565b6127a98161235b565b81146127b457600080fd5b50565b6000813590506127c6816127a0565b92915050565b60008060008060008060008060006101208a8c0312156127ef576127ee612230565b5b60006127fd8c828d01612261565b99505060208a013567ffffffffffffffff81111561281e5761281d612235565b5b61282a8c828d01612573565b98505060408a013567ffffffffffffffff81111561284b5761284a612235565b5b6128578c828d01612573565b97505060606128688c828d016127b7565b96505060806128798c828d016127b7565b95505060a061288a8c828d016127b7565b94505060c061289b8c828d016127b7565b93505060e06128ac8c828d016127b7565b9250506101006128be8c828d016127b7565b9150509295985092959850929598565b600081519050919050565b600082825260208201905092915050565b6000819050602082019050919050565b60008160070b9050919050565b612910816128fa565b82525050565b61291f8161235b565b82525050565b61292e81612340565b82525050565b61293d81612276565b82525050565b6101608201600082015161295a6000850182612907565b50602082015161296d6020850182612907565b5060408201516129806040850182612916565b5060608201516129936060850182612916565b5060808201516129a66080850182612916565b5060a08201516129b960a0850182612925565b5060c08201516129cc60c0850182612925565b5060e08201516129df60e0850182612925565b506101008201516129f4610100850182612934565b50610120820151612a09610120850182612934565b50610140820151612a1e610140850182612916565b50505050565b6000612a308383612943565b6101608301905092915050565b6000602082019050919050565b6000612a55826128ce565b612a5f81856128d9565b9350612a6a836128ea565b8060005b83811015612a9b578151612a828882612a24565b9750612a8d83612a3d565b925050600181019050612a6e565b5085935050505092915050565b60006020820190508181036000830152612ac28184612a4a565b905092915050565b612ad3816128fa565b8114612ade57600080fd5b50565b600081359050612af081612aca565b92915050565b600080600080600080600080610100898b031215612b1757612b16612230565b5b6000612b258b828c01612261565b9850506020612b368b828c01612ae1565b9750506040612b478b828c01612ae1565b9650506060612b588b828c016127b7565b9550506080612b698b828c016127b7565b94505060a0612b7a8b828c016127b7565b93505060c0612b8b8b828c01612297565b92505060e0612b9c8b828c016127b7565b9150509295985092959890939650565b61016082016000820151612bc36000850182612907565b506020820151612bd66020850182612907565b506040820151612be96040850182612916565b506060820151612bfc6060850182612916565b506080820151612c0f6080850182612916565b5060a0820151612c2260a0850182612925565b5060c0820151612c3560c0850182612925565b5060e0820151612c4860e0850182612925565b50610100820151612c5d610100850182612934565b50610120820151612c72610120850182612934565b50610140820151612c87610140850182612916565b50505050565b600061016082019050612ca36000830184612bac565b92915050565b600081519050919050565b600082825260208201905092915050565b6000819050602082019050919050565b600082825260208201905092915050565b6000612cf182612648565b612cfb8185612cd5565b9350612d0b818560208601612664565b612d1481612465565b840191505092915050565b6000612d2b8383612ce6565b905092915050565b6000602082019050919050565b6000612d4b82612ca9565b612d558185612cb4565b935083602082028501612d6785612cc5565b8060005b85811015612da35784840389528151612d848582612d1f565b9450612d8f83612d33565b925060208a01995050600181019050612d6b565b50829750879550505050505092915050565b60006020820190508181036000830152612dcf8184612d40565b905092915050565b6000606082019050612dec60008301866126c7565b612df960208301856126c7565b612e0660408301846126c7565b949350505050565b600060208284031215612e2457612e23612230565b5b600082013567ffffffffffffffff811115612e4257612e41612235565b5b612e4e84828501612573565b91505092915050565b612e608161223a565b82525050565b60006060830160008301518482036000860152612e838282612ce6565b9150506020830151612e986020860182612e57565b506040830151612eab6040860182612934565b508091505092915050565b60006020820190508181036000830152612ed08184612e66565b905092915050565b600080600080600080600080610100898b031215612ef957612ef8612230565b5b600089013567ffffffffffffffff811115612f1757612f16612235565b5b612f238b828c01612573565b985050602089013567ffffffffffffffff811115612f4457612f43612235565b5b612f508b828c01612573565b9750506040612f618b828c016127b7565b9650506060612f728b828c016127b7565b9550506080612f838b828c016127b7565b94505060a0612f948b828c016127b7565b93505060c0612fa58b828c016127b7565b92505060e0612fb68b828c016127b7565b9150509295985092959890939650565b600081905092915050565b6000612fdc82612648565b612fe68185612fc6565b9350612ff6818560208601612664565b80840191505092915050565b600061300e8284612fd1565b915081905092915050565b7f4e487b7100000000000000000000000000000000000000000000000000000000600052602260045260246000fd5b6000600282049050600182168061306057607f821691505b60208210810361307357613072613019565b5b50919050565b60008190508160005260206000209050919050565b60006020601f8301049050919050565b600082821b905092915050565b6000600883026130db7fffffffffffffffffffffffffffffffffffffffffffffffffffffffffffffffff8261309e565b6130e5868361309e565b95508019841693508086168417925050509392505050565b6000819050919050565b600061312261311d61311884612276565b6130fd565b612276565b9050919050565b6000819050919050565b61313c83613107565b61315061314882613129565b8484546130ab565b825550505050565b600090565b613165613158565b613170818484613133565b505050565b5b818110156131945761318960008261315d565b600181019050613176565b5050565b601f8211156131d9576131aa81613079565b6131b38461308e565b810160208510156131c2578190505b6131d66131ce8561308e565b830182613175565b50505b505050565b600082821c905092915050565b60006131fc600019846008026131de565b1980831691505092915050565b600061321583836131eb565b9150826002028217905092915050565b61322e82612648565b67ffffffffffffffff81111561324757613246612476565b5b6132518254613048565b61325c828285613198565b600060209050601f83116001811461328f576000841561327d578287015190505b6132878582613209565b8655506132ef565b601f19841661329d86613079565b60005b828110156132c5578489015182556001820191506020850194506020810190506132a0565b868310156132e257848901516132de601f8916826131eb565b8355505b6001600288020188555050505b505050505050565b60006020820190508181036000830152613311818461268e565b905092915050565b7f4e487b7100000000000000000000000000000000000000000000000000000000600052601160045260246000fd5b600061335382612276565b915061335e83612276565b925082820390508181111561337657613375613319565b5b92915050565b60006040820190506133916000830185612431565b61339e6020830184612368565b9392505050565b60006060820190506133ba600083018661234c565b6133c7602083018561234c565b6133d4604083018461234c565b949350505050565b7f4e487b7100000000000000000000000000000000000000000000000000000000600052603260045260246000fd5b60006134168261223a565b915063ffffffff820361342c5761342b613319565b5b600182019050919050565b600060408201905061344c6000830185612431565b818103602083015261345e818461268e565b9050939250505056fea2646970667358221220c363b6ba0eae9b1bde602352e042f2b66363e4f2254ae7a52551bafbd93cc9df64736f6c63430008110033",
  "immutableReferences": {},
  "source": "// SPDX-License-Identifier: MIT\r\npragma solidity ^0.8.17;\r\n\r\ncontract ColdChainTrakingV4 {\r\n\r\n    event deliverRegistEvent(uint32 round, string article);//\r\n    event deliverTempOutBoundEvent(uint32 round, int24 temperature);// \r\n    event deliverHumOutBoundEvent(uint32 round, int24 humidity);// \r\n    event deliverVibOutBoundEvent(uint32 round, int24 vibration);// \r\n    event traceEvent(bool isTemperatureOutBound, bool isHumidityOutBound, bool isVibrationOutBound);// \r\n    \r\n    event certificatesRegistEvent(string _certNum);// \r\n\r\n    struct Deliver {\r\n        uint8 stat; // 0:, 1:, 2:\r\n\r\n        string article;//  json\r\n        string articleDetail;//   json\r\n        \r\n        bool checkTemperatureOutBound;//\r\n        bool checkHumidityOutBound;//\r\n        bool checkVibrationOutBound;// \r\n\r\n        bool isTemperatureOutBound;//\r\n        bool isHumidityOutBound;//\r\n        bool isVibrationOutBound;//\r\n\r\n        int24 temperatureOutBound1;//  *1000, -99000 \r\n        int24 temperatureOutBound2;//  *1000\r\n        int24 humidityOutBound1;//  *1000, -99000 \r\n        int24 humidityOutBound2;//  *1000\r\n        int24 vibrationOutBound1;//  *1000, -99000 \r\n        int24 vibrationOutBound2;//  *1000\r\n\r\n        uint tempTimeOut;// \r\n        uint humiTimeOut;// \r\n        uint vibrTimeOut;// \r\n\r\n        uint startTempTimeOut;// \r\n        uint startHumiTimeOut;// \r\n        uint startVibrTimeOut;// \r\n        \r\n        uint startTime;//\r\n        uint endTime;//\r\n        uint timestamp;//\r\n\r\n        Trace[] tracking;//\r\n        string[] certificates;\r\n    }\r\n\r\n    struct Trace {\r\n        int64 latitude;//, *10000000000\r\n        int64 longitude;//, *10000000000\r\n        int24 temperature;// *1000\r\n        int24 humidity;// *1000\r\n        int24 vibration;// *1000\r\n        bool isTemperatureOutBound;//\r\n        bool isHumidityOutBound;//\r\n        bool isVibrationOutBound;//\r\n        uint deviceDt;//\r\n        uint timestamp;//\r\n        int24 aiStatus;//AI  0 : , 1 :  , 2 :  , 3 :  , 4 :  \r\n    }\r\n\r\n    struct Certificate {\r\n        string name; //\r\n        uint32 deliverId;\r\n        uint timestamp;//\r\n    }\r\n\r\n    address owner;\r\n    mapping (uint32=> Deliver) deliverList; //\r\n    mapping (string=> Certificate) certificateList; //\r\n\r\n    uint32 public round = 0; // 1 \r\n    \r\n    constructor() {\r\n        owner = msg.sender;\r\n    }\r\n\r\n    //     \r\n    function addDelivery(string memory _article, string memory _articleDetail, int24 _temperatureOutBound1, int24 _temperatureOutBound2\r\n                          , int24 _humidityOutBound1, int24 _humidityOutBound2, int24 _vibrationOutBound1, int24 _vibrationOutBound2) public returns (uint32) {\r\n        require(owner == msg.sender);\r\n\r\n        round++;\r\n        Deliver storage deliver = deliverList[round];\r\n        //deliver.number = 0;\r\n        deliver.stat = 0;\r\n        deliver.article = _article;\r\n        deliver.articleDetail = _articleDetail;\r\n        deliver.isTemperatureOutBound = false;\r\n        deliver.isHumidityOutBound = false;\r\n        deliver.isVibrationOutBound = false;\r\n\r\n        deliver.temperatureOutBound1 = _temperatureOutBound1;\r\n        deliver.temperatureOutBound2 = _temperatureOutBound2;\r\n        deliver.humidityOutBound1 = _humidityOutBound1;\r\n        deliver.humidityOutBound2 = _humidityOutBound2;\r\n        deliver.vibrationOutBound1 = _vibrationOutBound1;\r\n        deliver.vibrationOutBound2 = _vibrationOutBound2;\r\n\r\n        deliver.startTempTimeOut = 0;\r\n        deliver.startHumiTimeOut = 0;\r\n        deliver.startVibrTimeOut = 0;\r\n\r\n        if(_temperatureOutBound1>-99000) {//-99  \r\n            deliver.checkTemperatureOutBound = true;\r\n        } else {\r\n            deliver.checkTemperatureOutBound = false;\r\n        }\r\n\r\n        if(_humidityOutBound1>-99000) {//-99  \r\n            deliver.checkHumidityOutBound = true;\r\n        } else {\r\n            deliver.checkHumidityOutBound = false;\r\n        }\r\n\r\n        if(_vibrationOutBound1>-99000) {//-99  \r\n            deliver.checkVibrationOutBound = true;\r\n        } else {\r\n            deliver.checkVibrationOutBound = false;\r\n        }\r\n        deliver.timestamp = block.timestamp;\r\n\r\n        emit deliverRegistEvent(round, _article);\r\n\r\n        return round;\r\n    }\r\n\r\n    //, ,    \r\n    function setDeliveryTimeOut(uint32 _round, uint _tempTimeOut, uint _humiTimeOut, uint _vibrTimeOut) public {\r\n        require(owner == msg.sender);\r\n        require(deliverList[_round].timestamp != 0);//\r\n        require(deliverList[_round].stat == 0);\r\n\r\n        Deliver storage deliver = deliverList[_round];\r\n        deliver.tempTimeOut = _tempTimeOut;\r\n        deliver.humiTimeOut = _humiTimeOut;\r\n        deliver.vibrTimeOut = _vibrTimeOut;\r\n    }\r\n    \r\n    //   \r\n    function updateDelivery(uint32 _round, string memory _article, string memory _articleDetail, int24 _temperatureOutBound1, int24 _temperatureOutBound2\r\n                                               , int24 _humidityOutBound1, int24 _humidityOutBound2, int24 _vibrationOutBound1, int24 _vibrationOutBound2) public {\r\n        require(owner == msg.sender);\r\n        require(deliverList[_round].timestamp != 0);//\r\n        require(deliverList[_round].stat == 0);\r\n\r\n        Deliver storage deliver = deliverList[_round];\r\n        deliver.article = _article;\r\n        deliver.articleDetail = _articleDetail;\r\n        deliver.isTemperatureOutBound = false;\r\n        deliver.isHumidityOutBound = false;\r\n        deliver.isVibrationOutBound = false;\r\n\r\n        deliver.temperatureOutBound1 = _temperatureOutBound1;\r\n        deliver.temperatureOutBound2 = _temperatureOutBound2;\r\n        deliver.humidityOutBound1 = _humidityOutBound1;\r\n        deliver.humidityOutBound2 = _humidityOutBound2;\r\n        deliver.vibrationOutBound1 = _vibrationOutBound1;\r\n        deliver.vibrationOutBound2 = _vibrationOutBound2;\r\n\r\n        if(_temperatureOutBound1>-99000) {//-99  \r\n            deliver.checkTemperatureOutBound = true;\r\n        } else {\r\n            deliver.checkTemperatureOutBound = false;\r\n        }\r\n\r\n        if(_humidityOutBound1>-99000) {//-99  \r\n            deliver.checkHumidityOutBound = true;\r\n        } else {\r\n            deliver.checkHumidityOutBound = false;\r\n        }\r\n\r\n        if(_vibrationOutBound1>-99000) {//-99  \r\n            deliver.checkVibrationOutBound = true;\r\n        } else {\r\n            deliver.checkVibrationOutBound = false;\r\n        }\r\n    }\r\n\r\n    \r\n    // \r\n    function startTraking(uint32 _round, uint startDt) public {\r\n        require(owner == msg.sender);\r\n        // Deliver storage deliver = deliverList[_round];\r\n        require(deliverList[_round].timestamp != 0);//\r\n        require(deliverList[_round].stat == 0);\r\n\r\n        deliverList[_round].stat = 1;\r\n        deliverList[_round].startTime = startDt;\r\n    }\r\n\r\n    // \r\n    function endTraking(uint32 _round, uint endDt) public {\r\n        require(owner == msg.sender);\r\n        // Deliver storage deliver = deliverList[_round];\r\n        require(deliverList[_round].timestamp != 0);//\r\n        require(deliverList[_round].stat == 1);\r\n\r\n        deliverList[_round].stat = 2;\r\n        deliverList[_round].endTime = endDt;\r\n    }\r\n\r\n    //  \r\n    function addTraking(uint32 _round, int64 _latitude, int64 _longitude, int24 _temperature, int24 _humidity, int24 _vibration, uint deviceDt, int24 aiStatus) public returns(Trace memory){\r\n        require(owner == msg.sender);\r\n        require(deliverList[_round].timestamp != 0);//\r\n        Deliver storage deliver = deliverList[_round];\r\n\r\n        if(deliver.stat == 0) {\r\n            startTraking(_round, block.timestamp);\r\n        }\r\n\r\n        require(deliver.stat == 1);\r\n\r\n        bool isTempOutBound = false;\r\n        bool isHumidityOutBound = false;\r\n        bool isVibrationOutBound = false;\r\n\r\n        if(deliver.checkTemperatureOutBound && (deliver.temperatureOutBound1>_temperature || deliver.temperatureOutBound2<_temperature)) {\r\n            //\r\n            if((deliver.tempTimeOut == 0) || (deliver.startTempTimeOut>0 && (block.timestamp - deliver.startTempTimeOut >= deliver.tempTimeOut))) {\r\n                isTempOutBound = true;\r\n                deliver.isTemperatureOutBound = true;\r\n                emit deliverTempOutBoundEvent(_round, _temperature);\r\n            }\r\n            if(deliver.startTempTimeOut==0) {\r\n                deliver.startTempTimeOut = block.timestamp;\r\n            }\r\n        } else {\r\n            deliver.startTempTimeOut = 0;\r\n        }\r\n\r\n        if(deliver.checkHumidityOutBound && (deliver.humidityOutBound1>_humidity || deliver.humidityOutBound2<_humidity)) {\r\n            //\r\n            if((deliver.humiTimeOut == 0) || (deliver.startHumiTimeOut>0 && (block.timestamp - deliver.startHumiTimeOut >= deliver.humiTimeOut))) {\r\n                isHumidityOutBound = true;\r\n                deliver.isHumidityOutBound = true;\r\n                emit deliverHumOutBoundEvent(_round, _humidity);\r\n            }\r\n            if(deliver.startHumiTimeOut==0) {\r\n                deliver.startHumiTimeOut = block.timestamp;\r\n            }\r\n        } else {\r\n            deliver.startHumiTimeOut = 0;\r\n        }\r\n\r\n        if(deliver.checkVibrationOutBound && (deliver.vibrationOutBound1>_vibration || deliver.vibrationOutBound2<_vibration)) {\r\n            //\r\n            if((deliver.vibrTimeOut==0) || (deliver.startVibrTimeOut>0 && (block.timestamp - deliver.startVibrTimeOut >= deliver.vibrTimeOut))) {\r\n                isVibrationOutBound = true;\r\n                deliver.isVibrationOutBound = true;\r\n                emit deliverVibOutBoundEvent(_round, _vibration);\r\n            }\r\n            if(deliver.startVibrTimeOut==0) {\r\n                deliver.startVibrTimeOut = block.timestamp;\r\n            }\r\n        } else {\r\n            deliver.startVibrTimeOut = 0;\r\n        }\r\n\r\n        Trace memory trace = Trace(_latitude, _longitude, _temperature, _humidity, _vibration, isTempOutBound, isHumidityOutBound, isVibrationOutBound, deviceDt, block.timestamp, aiStatus);\r\n        deliver.tracking.push(trace);\r\n        \r\n        emit traceEvent(isTempOutBound, isHumidityOutBound, isVibrationOutBound);\r\n        return trace;\r\n    }\r\n\r\n    // \r\n    function getDeliveryInfo(uint32 _round) public view returns (uint8, string memory, string memory, uint, uint, uint) {\r\n        require(deliverList[_round].timestamp != 0);//\r\n        return (deliverList[_round].stat, deliverList[_round].article, deliverList[_round].articleDetail, deliverList[_round].startTime, deliverList[_round].endTime, deliverList[_round].timestamp);\r\n    }\r\n\r\n    // \r\n    function getDeliveryCheckInfo(uint32 _round) public view returns (bool, bool, bool, bool, bool, bool, int24, int24, int24, int24, int24, int24) {\r\n        require(deliverList[_round].timestamp != 0);//\r\n        Deliver storage deliver = deliverList[_round];\r\n\r\n        return (deliver.checkTemperatureOutBound, deliver.checkHumidityOutBound, deliver.checkVibrationOutBound\r\n        , deliver.isTemperatureOutBound, deliver.isHumidityOutBound, deliver.isVibrationOutBound\r\n        , deliver.temperatureOutBound1, deliver.temperatureOutBound2, deliver.humidityOutBound1, deliver.humidityOutBound2\r\n        , deliver.vibrationOutBound1, deliver.vibrationOutBound2);\r\n    }\r\n\r\n    //  \r\n    function getDeliveryTimeOut(uint32 _round) public view returns (uint, uint, uint) {\r\n        require(deliverList[_round].timestamp != 0);//\r\n        return (deliverList[_round].tempTimeOut, deliverList[_round].humiTimeOut, deliverList[_round].vibrTimeOut);\r\n    }\r\n\r\n    // \r\n    function getStat(uint32 _round) public view returns (uint8) {\r\n        require(deliverList[_round].timestamp != 0);//\r\n        return deliverList[_round].stat;\r\n    }\r\n\r\n    // \r\n    function getRoundTraking(uint32 _round) public view returns(Trace[] memory) {\r\n        require(deliverList[_round].timestamp != 0);//\r\n        return deliverList[_round].tracking;\r\n    }\r\n\r\n    //   \r\n    function getRoundLastTraking(uint32 _round) public view returns(Trace memory) {\r\n        require(deliverList[_round].timestamp != 0);//\r\n        return deliverList[_round].tracking[deliverList[_round].tracking.length-1];\r\n    }\r\n\r\n    //    \r\n    function getRoundCertificate(uint32 _round)  public view returns(string[] memory) {\r\n        return deliverList[_round].certificates;\r\n    }\r\n\r\n    //  \r\n    function generateCertificate(string memory _certNum, string memory _name, uint32 _round) public {\r\n        require(owner == msg.sender);\r\n\r\n        Deliver storage deliver = deliverList[_round];\r\n        require(!deliver.isTemperatureOutBound);//\r\n        require(!deliver.isHumidityOutBound);//\r\n        require(!deliver.isVibrationOutBound);//\r\n        require(deliver.stat == 2);//\r\n        require(certificateList[_certNum].timestamp == 0);//   \r\n\r\n        Certificate storage certificate = certificateList[_certNum];        \r\n        certificate.name = _name;\r\n        certificate.deliverId = _round;\r\n        certificate.timestamp = block.timestamp;\r\n\r\n        emit certificatesRegistEvent(_certNum);\r\n        deliver.certificates.push(_certNum);\r\n    }\r\n\r\n    // \r\n    function getCertificate(string memory _certNum) public view returns (Certificate memory) {\r\n        return certificateList[_certNum];\r\n    }\r\n}",
  "sourcePath": "D:\\lang\\blockchain\\truffle\\coldChainV4\\contracts\\ColdChainTrakingV4.sol",
  "compiler": {
    "name": "solc",
    "version": "0.8.17+commit.8df45f5f.Emscripten.clang"
  },
  "schemaVersion": "3.4.16",
  "updatedAt": "2025-11-06T04:10:42.631Z",
  "networkType": "ethereum",
  "devdoc": {
    "kind": "dev",
    "methods": {},
    "version": 1
  },
  "userdoc": {
    "kind": "user",
    "methods": {},
    "version": 1
  }
}